{
  "contractName": "Crowd",
  "abi": [
    {
      "constant": true,
      "inputs": [],
      "name": "balance",
      "outputs": [
        {
          "internalType": "uint256",
          "name": "",
          "type": "uint256"
        }
      ],
      "payable": false,
      "stateMutability": "view",
      "type": "function"
    },
    {
      "constant": false,
      "inputs": [],
      "name": "donateFunds",
      "outputs": [],
      "payable": true,
      "stateMutability": "payable",
      "type": "function"
    }
  ],
  "bytecode": "0x608060405260008055348015601357600080fd5b5060a3806100226000396000f3fe60806040526004361060265760003560e01c80637150773d14602b578063b69ef8a8146033575b600080fd5b6031605b565b005b348015603e57600080fd5b5060456068565b6040518082815260200191505060405180910390f35b3460005401600081905550565b6000548156fea265627a7a723158201240f14d1fc44655d838fd8796b3ac9cdcc35295c3f7f674030b789578935cf364736f6c63430005100032",
  "source": "// SPDX-License-Identifier: MIT\npragma solidity >=0.4.22 <0.8.0;\n\ncontract Crowd {\n    uint public balance=0;\n    function donateFunds() public payable {\n        balance=balance+msg.value;\n    }\n}",
  "sourcePath": "/Users/princekurian/Desktop/CrowdFunding/contracts/Crowd.sol",
  "compiler": {
    "name": "solc",
    "version": "0.5.16+commit.9c3226ce.Emscripten.clang"
  },
  "schemaVersion": "3.4.4",
  "updatedAt": "2022-09-04T16:07:39.591Z",
  "networkType": "ethereum",
  "devdoc": {
    "methods": {}
  },
  "userdoc": {
    "methods": {}
  }
}